01030003067004699000CHARQUE MONDELLI  P.A    
01030003069001899000PEITO RESFRI NATTO       
01030003097003599000CARNE DE BODE OU CARNEIRO
01030003187001249000SALSICHA NATTO AVE       
01030003317002599000MORTADELA SEARA GOUMERT  
01030003320002200100CHARQUE  ROJAO FAVORITO  
01030003321002499000CHARQUE  RETALHO FAVORITO
01030003327001249000COXA C SOBRECOXA MAURICEA
01030003339001999000PERA D.ANJOU KG          
01030003361001599000UVA NUBIA KG             
01030003362000849000RACAO RACADOG PREMIUM    
01030003379001859000SALSICHAO TONY           
01030003382000399000PELE DE BOI KG           
01030003383002199010CHESTER LANCHE PERDIGAO  
01030003387002599000FILE DE PEITO RESFRI     
01030003388002299000COXINHA DA ASA RESFRI NAT
01030003603000999000MORTADELA FLUMINENSE     
01030003852000949000SALSICHA HOT DOG AVIVAR  
01030003885001649000MACA VERDE KG            
01030003889003500000ACAFRAO kg               
01030004005002099000PEIXE FILE DE POLACA     
01030004198001349000PEIXE TAINHA INTEIRA     
01030001950001649000MARGARINA MEDALHA DE OURO
01030001952001579000MARGARINA PASTELA        
01030004564004499000BACON KG                 
01030004750002439000PRESUNTO DE PERU SEARA   
01031005023000499007COUVE FLOR PECA          
01030005100002899010COSTELA MINGA KG         
01030005102002999000CHARQUE CAVACO MONDELLI  
01030005123007000000TEMPERO DE FEIJAO        
01030005143003199000PAIO kg                  
01030005159000749000SALSICHA ESTRELA         
01030005254000419000PERTENCE DE FRANGO NATTO 
01030005458002399000BISTECA DE FRANGO KG     
01030005540002199000LINGUICA DE FRANGO AVIVAR
01030005564001129000MORTADELA KI-DELICIA     
01030005599001099000OSSO DE BACIA            
01030005615001799060CHARQUE ROJAO            
01030005761002999050CALABRESA TONY DEF BOI KG
01030005993004999000TEMPERO CHIMICHURRI      
01030006015004999000TEMPERO DO EDU           
01030006041001899000PITAYA KG                
01030006044004799000OREGANO kg               
01030006092001299000FRANGO CONGEL FRANGO DOUR
01030006118006499000TEMPERO PEGA MARIDO      
01030006119007000000TEMPERO GAUCHO           
01030006132005099000CHARQUE LARGATO PLANO KG 
01030006183009000000CHA DE CAMOMILA          
01030006185006000000TEMPERO BAIANO           
01030006188005000000ALECRIM kg               
01030006234006999000FOLHA DE LOURO           
01030006235015999000CRAVO EM GRAO            
01030006236012000000CANELA EM PAU            
01030006241001679000RACAO NHAC! CAT KG       
01030006242001449000RACAO NHAC! DOG FILHOTE K
01030006261001199000RACAO NHAC! DOG ADULTO KG
01030006391001999000CHARQUE ROJAO FRINENSE   
01030006539001999000PEIXE CASTANHA TRAT PEQ  
01030006591003190000PEITO DE PERU DEFUMADO   
01030007303005000000SEMENTE DE CHIA          
01030007004003000000CURRY EM PO              
01030007006007000000LEMON PEPPER             
01030007007003999000LINHACA DOURADA          
01030007009001500000SAL ROSA HIMALAIA KG     
01030007010007000000SALSA, CELBOLA E ALHO DES
01030007011007000000VINAGRETE EM FLOCOS      
01030007030008299100PIMENTA RALADA           
01031008292001700000MIUDO un                 
01030007633005990000PIMENTA CALABRESA KG     
01030007648005999000TEMPERO PEGA ESPOSA      
01030007792001499000ATEMOIA kg               
01030007911004490000ESPINHEIRA SANTA         
01030007982000879000SALSICHA HOT DOG RARA    
01030008059004390010LINGUICA CASEIRA         
01030008135001299000MORTADELA REZENDE        
01030008155003649000CHARQUE P.A CAMARA KG    
01030008585001799000LANCHE TONY DE FRANGO    
01030008277005699015QUEIJO CHEDDAR KG        
01030008360000990000RACAO CHANIN MIX OU PEIXE
01030008361001190000RACAO CHANIN CASTRADO    
01030009565002290000FRANGO TEMPERADO KG      
01030009654001149000RACAO CALOPSITA CEDAN    
01030009775000949000RACAO RACA DOG PREMUM FIL
01030010989001449000MORTADELA SEARA KG       
01031000106000050000QUENTINHA DE ISOPOR      
01031009740000050000QUENTINHA DE ISOPOR      
01030009162002499015FEIJAO VERDE             
01030009895000899000MORTADELA MAURICEA       
01030009684003500396PAPRICA PICANTE          
01030000005004449200TRASEIRO FRINENSE CHAQUE 
01030009698005999396ERVA DOCE                
01030009743002449000FILE DE PEITO CONGELADO  
01030009750000899000OSSO DE CONTRA FILE      
01030010356001249000MOCOTO CONGELADO         
01030010357001699000COXA C SOBRE FRAN TEMPERA
01030013644001799000PAINCO PRETO             
01030000043002999030CHARQUE P.A BIG BANDEJADA
01030001046006000000PIMENTA EM GRAO          
01030001047013999000ANIL ESTRELADO           
01030001048002249000FOLHA DE SENNE           
01030009685003500396PAPRICA DEFUMADA         
01030009686003500396PAPRICA DOCE             
01030011277000999200RETALHO PREMIUM SALGADO  
01030011264005500000HIBISCO kg               
01030013699001299000UVA ROXA KG              
01030009682002199000CARNE DE PORCO           
01030013766001499000UVA VERDE SEM SEMENTE KG 
01030009873002199000TOSCANA ALEGRA DE PORCO  
01030014378004999000QUEIJO PRESIDENT MUSSAREL
01030014279002899000CALABRESA NOBRE MISTA    
01030013985000499000MELAO GALIA              
01030013986007500000TEMPERO MOLHO TARTARO    
01030015242000299000BATATA DOCE BRANCA       
01030000008004499000CHARQUE P.A BERTIN       
01030000009004899000CHARQUE PEITO DOIS PELOS 
01030001051002599000RUMEN BOVINO CONGELADO   
01030001287000999010TOMATE kg                
01030001313000549000CEBOLA kg                
01031001503000066000LARANJA COMUN CRAVO      
01030001518000599000CENOURA kg               
01030001591004299090CALABRESA DE FRANGO SADIA
01030001592000649000BATATA INGLESA KG        
01030002009000499000PEPINO COMUM kg          
01030002010000649000CEBOLA ROXA KG           
01030002011000399000REPOLHO VERDE KG         
01030002012000499000REPOLHO ROXO KG          
01031002014000149000PIMENTAO UN              
01030002017000499000MACAXEIRA kg             
01030002018000349000CARA DA REGIAO KG        
01030002020001199000INHAME KG                
01030002021000599000BATATA DOCE ROXA kg      
01030002024000499000MELAO AMARELO kg         
01030002025000499010MELAO VERDE KG           
01030002026000349000MELANCIA FATIADA         
01030002027000449000MELANCIA SEM SEMENTE     
01030002028000649000MAMAO HAVAI kg           
01030002029000699000MAMAO FORMOSA kg         
01030002030000749000MARACUJA kg              
01030002031000749000MANGA TOMMY kg           
01030002032000399000GOIABA kg                
01030002063002099000AMEIXA kg                
01031002064000499000BANANA PRATA PALMA       
01030002066000599000BANANA COMPRIDA KG       
01030002068001549000MACA GRANDE KG           
01030002072000499000LARANJA MIMO             
01030002073000399000LARANJA PERA kg          
01030002074000999000LARANJA POKAN KG         
01030002075000799010TANGERINA NACIONAL       
01030002078001299000PINHA kg                 
01030002079000699000GRAVIOLA kg              
01030002081000599000CAJA kg                  
01030002082000749000CAJU NATURAL             
01030002083000349000MANGA ESPADA kg          
01030002084000849000MANGA ROSA kg            
01030002085002799000KIWI kg                  
01031002086000199000CAQUI UND                
01030002172004599000CHARQUE CUPIM FAVORITA   
01030002186003999050PRESUNTO LEVISSIMO SEARA 
01030002189001099250PAICO PORTUGUES          
01030002190001500250ALPISTE kg               
01030002191002199395MILETO kg                
01030002192002499250PAINCO VERDE             
01030002193001799250PAICO VERMELHO           
01030002195002699007BROCOLIS kg              
01030002197000699000BERINJELA kg             
01030002225004299000COXAO MOLE KG            
01030002226004099000ALCATRA kg               
01030002227003699000PATINHO kg               
01030002228003499000LOMBO kg                 
01030002229003699000CHA DE FORA              
01030002230002999000BISTECA BOVINA           
01030002231004890000CONTRA FILE KG           
01030002232002899000PALETA C  OSSO           
01030002233004199000MAMINHA kg               
01030002234005599000PICANHA kg               
01030002235002499000COSTELA kg               
01030002236004699000CARNE DE SOL             
01030002237003299000BIFE DE SEGUNDA          
01030002238002299000CHAMBARIL kg             
01030002239000299000OSSO kg                  
01030002240002499000CARNE MOIDA KG           
01030002241002599000ACEM kg                  
01030002242002699000ALCATRINHA kg            
01030002243002949000COSTELINHA kg            
01030002244002790000GUIZADINHO kg            
01030002245003599000CUPIM BOVINO             
01030002246003399000RABADA kg                
01030002247003499000FRALDINHA kg             
01030002248004499000FILE MIGNON              
01031002249002000000MOCOTO un                
01030002250002669000LINGUICA DE FRANGO PERDIG
01030002251002799000LINGUICA PORCO PERDIGAO  
01030002252001599000COLORAL kg               
01030002253006299000TEMPERO COMINHO          
01030002258000929000RACAO RACA DOG FILHOTE   
01030002260000779000RACAO RACADOG ADULTO     
01030002344002499100PIMENTA DE CHEIRO KG     
01030002347000499000BETERRABA kg             
01030002353000749000ABOBRINHA kg             
01030002354000499020JERIMUM MARANHAO         
01030002355002599000GENGIBRE kg              
01030002356000999100VAGEM kg                 
01031002359000499000BREDO un                 
01030002361001249000MOELA DE FRANGO MAURICEA 
01030002363001299000UVA ITALIA kg            
01030002364001499000UVA VITORIA KG           
01030002365000849000ACEROLA kg               
01030002366006699000MANTEIGA COPO DE LEITE   
01030002370004999000AMEIXA SECA S  CAROCO    
01030002371002799000UVA PASSA                
01030002372001690000FRUTA CRISTALIZADA       
01030002374003999000BICARBONATO DE SODIO     
01030002375001299000FIGADO SUINO             
01030002376003099000FIGADO BOVINO SALGADO    
01030002377001249000MORTADELA PERDIGAO FRANGO
01030002378001099000MORTADELA PERDIGAO PORCO 
01030002379001099000MORTADELA CONFIANCA FRANG
01030002380001079000MORTADELA CONFIANCA PORCO
01030002381001099000MORTADELA TONY FRANGO    
01030002382001149000MORTADELA TONY BOI       
01030002383002099000MORTADELA BOLOGNELA PERDI
01030002384002999000MORTADELA BOLONHA OURO   
01030002386000999000MORTADELA SADIA PORCO KG 
01030002388000999000MORTADELA NATTO FRANGO   
01030002389000949000MORTADELA NATTO MISTA    
01030002390001399000SALSICHA PERDIGAO HOTDOG 
01030002391001649000SALSICHA PERDIGAO FRANGO 
01030002393001299000SALSICHA SEARA PORCO KG  
01030002394001599000SALSICHA TONY FRANGO     
01030003396001499033SALSICHA POPULAR         
01030002398000399007ACELGA KG                
01030002450004999010MUSSARELA NATVILLE       
01030002452004999010MUSSARELA MASTERBOI      
01030002461005499010QUEIJO PRATO NATVILLE    
01030002462005090010QUEIJO MANTEIGA          
01030002463003999020QUEIJO COALHO NATURAL FUR
01030002466001790010CHESTER LANCHE WILSON    
01030002467002999010PRESUNTO SADIA KG        
01030002468003299010PRESUNTO PERDIGAO PERU KG
01030002469003599010PRESUNTO SEARA           
01030002471002999090CALABRESA PERDIGAO       
01030002473002999090CALABRESA SEARA          
01030002475002799090CALABRESA TONY FRANGO    
01030002476002999090CALABRESA FRIATO FRANGO K
01030002477001629000GALINHA ABATIDA          
01030002479003799100PEIXE MERLUZA SALGADA    
01030002480006199150PEIXE SALGADO BACALHAU   
01030002481001999100CASTANHA SALGADA KG      
01030002482002299100PESCADA SALGADA          
01030002483002999100LINGUA SALGADA           
01030002484001999100SARDINHA SALGADA         
01030002485002790000COSTELA DE PORCO CONG    
01030002486002500100CAMARAO SALGADO          
01030002488001499100PE DE PORCO SALGADO      
01030002490002799100RABO DE  PORCO           
01030002491001499100ORELHA DE PORCO          
01030002493002290100COSTELA DE PORCO SALG    
01030002494001399100TOUCINHO DE PORCO        
01030002495001999100PIABINHA SALGADA         
01030002503001349000RACAO PEDIGREE FILHOTE   
01030002512001399000RACAO KITEKAT            
01030002513001899000RACAO WHISKAS KG         
01030002514001899000RACAO FRISKIES           
01030002515000799000RACAO CEDAN CAT          
01030002517000349000RACAO COELHO             
01030002518000999000RACAO PERIQUITO          
01030002519000389000RACAO POSTURA            
01030000042000915000RACAO AVEVITA            
01030002521001399000SEMENTE DE GIRASSOL      
01030002522000399000RACAO CRESCIMENTO        
01030002523000499000RACAO PRE-INICIAL        
01030002528005000000CHA DE CAVALINHA         
01030002544003999000ALHO kg                  
01030002545001990000LINGUICA DE FRANGO SADIA 
01030002547002299000LINGUICA DE FRANGO AURORA
01030002548002399000LINGUICA DE PORCO AURORA 
01030002551000799300FARINHA DA CASA QUEBRADIN
01030002600003299000LINGUICA MISTA DEFUMADA  
01030002602014999010QUEIJO DO REINO KG       
01030002603002199000PEIXE ATUM EM POSTA      
01030002605001799000PEIXE CORVINA INTEIRA KG 
01030002608001499000PEIXE CAVALINHA          
01030002610001599000PEIXE ANCHOVA KG         
01030002611001149000SARDINHA CONGELADA KG    
01030002612003399273FILE DE MERLUZA          
01030002613001799000PEIXE CASTANHA TRATADA KG
01030002614002099000PEIXE PESCADA TRATADA    
01030002616001499000FIGADO BOV FRESCO CONG KG
01030000306001499000FIGADO BOV FRESCO CONG KG
01030002617004599250CARNE BANANINHA kg       
01030002618002299000BISTECA DE PORCO         
01030002619001249000OSSO DE PATINHO          
01030002620000339000PERTENCE CONG MAURICEA   
01030002621000369000PERTENCE FRANGO DOURADO  
01030002622001389000FRANGO CONGELADO MAURICEA
01030002623001369000FRANGO CONGELADO NATTO   
01030002624001649000PEITO CONG REAL          
01030002625001849000PEITO CONGELADO KG       
01030002628000799000PE DE GALINHA KG         
01030002629002249000ASA RESFRI NATTO         
01030002630001499000COXA E OU SOBRECOXA RESF 
01030002631001499000COXA E OU SOBRECOXA RESF 
01030006301001499000COXA E OU SOBRECOXA RESF 
01031002649000050000BANANA MACA UN           
01030002718002799000PALETA FRIBOI            
01030002719002799000PEITO BOVINO             
01030002912000889000RACAO RACACAT            
01030003022001999200TANGERINA CRAVO KG       
01030000095000999000SARAPATEL SUINO          
01031000141001099020MORANGO ESPECIAL 200G    
01031000222000849060LINGUICA FININHA SEARA 21
01030003188002649000MORTADELA DEFUMADA SADIA 
01030003190001499000UVA ISABEL               
01030002065000300000JABOTICABA kg            
01030004619003199090CALABRESA SADIA          
01030004666001249000SASLSICHA NATTO MISTA    
01030004777001060000COXA C SOBRECOXA CONG NAT
01030004941002149000LINGUICA NATTO           
01030006000004879000TEMPERO ANA MARIA        
01030009693008499396FOLHA DE BOLDO           
01030002033000999000ABACATE kg               
01030002180004999000CHARQUE COXAO BELLO      
01030002182003999000CHARQUE ABSOLUTO P.A     
01031002343000199007JILO BDJ                 
01030002507001449000RACAO DOG CHOW FILHOTE   
01030003024000599000PEPINO JAPONES KG        
01031000115000799015PIMENTAO YELLOW RED      
01030000014000699000GRAVIOLA FATIADA kg      
01031000018000199007PIMENTAO BANDEJA         
01030000019000449000BANANA COMPRIDA MADURA KG
01031001249000500000JACA INTEIRA MOLE        
01030000022001299000RACAO PAPAGAIO           
01030000027001799000AVE NATALINA MAURICEA    
01030002520000915000RACAO SABIA              
01030001060001699000GALINHA MATRIZ ABATIDA   
01031000050000040000LARANJA CRAVO UN         
01031020622000200000ABACAXI P UN             
01030000061004699010MUSSARELA MAURICEA       
01031000064000199000ESCAROLA un              
01031000065000199000ESPINAFRE un             
01030000066001999200BATATA PALITO KG         
01031000021000299090SELETA DE LEGUMES 300G   
01030000085003299000JARKED BEEF PEITO 2 PELOS
01030000084001699000MOCOTO VISCERAS BRANCA kg
01030000087003899000CHARQUE P.A BIG          
01030000090002999000MUSCULO BOVINO           
01030000091003999030ALCATRA BLACK FRIBOI KG  
01030000092000999100MAXIXE QUIABO KG         
01030000093003899000CHARQUE P.A TAMA KG      
01030000099005199000COXAO MOLE BLACK         
01030024631003599020QUEIJO COALHO COM OREGANO
01031000116000040000HAMBURGUEIRA TH-01 TOTALP
01030000120000899020JERIMUM MORANGA          
01030000121000999000MACA PEQUENA CT2 KG      
01030000081000999000MACA PEQUENA CT2 KG      
01030000122000699000GALINHA LEVE CONG KG     
01031000206000999010MUSSARELLA ISIS FATIADO 1
01030000123003399000CHARQUE P.A FAVORITO KG  
01030000124004199000PICADINHO CARNE DE SOL   
01030023541000799020JERIMUM MARANHAO INTEIRO 
01030000127000249000MILHO EM GRAO KG         
01030000107001999000TOSCANA NOBRE FRANGO     
01030000130001599015RAMBUTAN BANDEJADO       
01030000133003599010QUEIJO MUSSARELA HORIZONT
01030000134004599000PEITO DOIS PELO BELLO KG 
01031000178001499090CALABRESA SEARA 400G     
01030000135004999000CHARQUE CUPIM FRINENSE  k
01031000055000749000LIGUICA DEFUMADA TONY 200
01030000138004799000TEMPERO DO CHEF          
01031103191000050000MILHO VERDE G            
01030000144001799000PAINCO KG                
01030000145004399000CHARQUE PEITO FRINENSSE K
01030000146002899010PRESUNTO PERDIGAO KG     
01030000148000699000RACAO DOMINIUM DOG KG    
01030000149004999000CHARQUE DIANTEIRO FAVORIT
01030000150004899000CHARQUE DOIS PELO FAVORIT
01030000169001349000MOCOTO FATIADO VACUO     
01030000159004899010QUEIJO MOZZARELLA CORLASA
01030000160002299000LINGUICA SUINA CHURR SUIN
01030000161000699060MACAXEIRA CONGELADA      
01030000302001999000BACO BOVINO KG           
01030000303001999000CARNE BOV NEURAL         
01030000304000999000RIM BOVINO               
01030000305002599000LINGUA BOV FRESCA        
01030000307000999000CORACAO BOV              
01030000162011999000PICANHA WORD KG          
01030000163008599000PICANHA  ORANGE KG       
01030000164001999090CALABRESA SAO MATEUS KG  
01031000165000699000UMBU CAJA                
01030000166001699033MARIA ROSA KG            
01031000167000199000ABACAXI FATIADO BDJ      
01031000168000069000PRAFESTA FATIA BOLO      
01030000170004199060CHARQUE P.A EM CUBOS     
01030000171003699015PIMENTAO COLORIDO KG     
01030000173001599100PIMENTA BIQUINHO         
01030000003001399000PESSEGO KG               
01030000004001849000NECTARINA KG             
01030000174003199000ROMA IMPORTADA KG        
01030000006011990000SALAME FATIADO FRIMESA KG
01031000007001199060LICHIA BDJ               
01030000158003899000CHARQUE DIANTEIRA BIG KG 
01031000180000999030QUEIJO MUSSARE LA PAULINA
01030000176005099000CHARQUE CUPIM BERTIN kg  
01031000177000899000ACHACHAIRU UN            
01031000179000399000JABUTICABA  UND          
01030000013002799010PRESUNTO DE FILE MIGNON S
01031000181000599000BANANA COMPRIDA M        
01031000182000599000BANANA COMPRIDA G        
01031000185000599000BANANA COMPRIDA P        
01031020647000299000BANANA PRATA PALMA PP    
01030001985000499010TOMATE BANDEIJA          
01030001986000449000BATATA INGLESA BANDEIJA  
01030001987000599000CEBOLA  BANDEIJA         
01030001924000599000CARA  KG                 
01030000186004299000CHARQ P.A TRADICIONAL FRI
01030000187000699060MACAXEIRA G              
01030000189000399007RUCULA UND               
01031000151000200000ABACAXI UN               
01030000191000249000XEREM KG                 
01030000192000249000FARELO KG                
01031000194000599000BANANA COMPRIDA GG       
01031000195000200000ABACAXI UN               
01030000197000299000BATATA DOCE KGG          
01030000198000699000GRAVIOLA  KGG            
01031000200000100000ABIU KG                  
01031000201000599000BANANA COMPRIDA          
01030000202000499007COUVE FLOR KG            
01030000204000349000MANGA ESPADA UN          
01031000208000599000BANANA COMPRIDA          
01031000209000599000BANANA COMPRIDA          
01030000211000499000GOIABA MADURA            
01030000212004499231FILE DE TILAPIA CONG KG  
01030000216000999000MACA PEQ BANDEIJA        
01030000157004099000CORACAO DE FRANGO CONG KG
01030000220002699000PEIXE SERRA KG           
01030000221001849000TOSCANA COOPAVEL MISTA KG
01030000223004299000CHARQUE DIANTEIRO CAMARA 
01030000224004199000CAPA COXAO MOLE KG       
01030000225000499000GOIABA BANDEIJA          
01030000226000849000ACEROLA  KGG             
01030000227000699060MACAXEIRA PROMO KG       
01031000228000599000BANANA COMPRIDA          
01030000229001599000CHARQUE DIANTEIRO FRINENS
01030000232000549000MANGA PALMA KG           
01030000233001599000UVA VITORIA  BDJ         
01030000234001399000UVA ITALIA  BNDJ         
01030000235001299000GALINHA MATRIZ CONG KG   
